:100000000C9434000C9451000C9451000C94510049
:100010000C9451000C9451000C9451000C9451001C
:100020000C9451000C9451000C9451000C9451000C
:100030000C9451000C9451000C9451000C945100FC
:100040000C94DC020C9451000C9451000C9451005F
:100050000C9451000C9451000C9451000C945100DC
:100060000C94E6000C94510011241FBECFEFD4E095
:10007000DEBFCDBF11E0A0E0B1E0E4E0F6E002C0F9
:1000800005900D92A430B107D9F711E0A4E0B1E0DA
:1000900001C01D92A032B107E1F70E9452010C94F9
:1000A00000030C9400008091B900803A79F1813A04
:1000B00028F4803651F0803889F50EC0883BD9F09D
:1000C000803C21F1883A51F50FC08091BB00E0914E
:1000D0001E01F0911F0106C08091BB00E0911C0140
:1000E000F0911D0109950EC08091BB00E0911E01A9
:1000F000F0911F010995E0911801F09119010995FE
:100100008093BB0084EC8093BC000895E0911A01B9
:10011000F0911B01099584EC8093BC00089508952B
:1001200090910601E92FF0E0EC5FFE4F80839F5F26
:1001300090930601089590910701E92FF0E0EC5F9C
:10014000FE4F80819F5F90930701089510920601F2
:100150001092070108958091160190911701873040
:10016000910534F401969093170180931601089538
:10017000109217011092160186ED91E09093010103
:1001800080930001089580911401909115018730AA
:10019000910534F40196909315018093140108950C
:1001A00010921501109214018CE492E090930301D7
:1001B000809302010895880F8093BA00613011F492
:1001C00085E401C084E48093BC0008951F920F92DF
:1001D0000FB60F9211242F933F934F935F936F931A
:1001E0007F938F939F93AF93BF93EF93FF93F89475
:1001F0000E9453007894FF91EF91BF91AF919F912E
:100200008F917F916F915F914F913F912F910F90BF
:100210000FBE0F901F90189590931F0180931E01A1
:10022000089590931D0180931C01089590931B01E4
:1002300080931A01089590931901809318010895ED
:100240008091BC00881F8827881F08950E94200184
:10025000882311F00E9453000895282F269530E03E
:1002600080FF03C0309521953F4FC90108958FEF5E
:1002700090E0909389008093880090938B00809306
:100280008A0081EF809380008AE080938100089546
:1002900015B88EE184B9089583E085BD81E080932F
:1002A0006E000895CF93DF930E9437010E944801AA
:1002B0000E944C0182E060E00E94DB008FE890E049
:1002C00090931F0180931E018BE990E09093190198
:1002D0008093180180E990E090931D0180931C01A8
:1002E00086EA90E090931B0180931A0178940E9413
:1002F0002601809104010E942D01EC0180910501ED
:100300000E942D01D0930901C093080190930B0125
:1003100080930A01ECCF97FD03C021E030E002C0DA
:100320002FEF3FEFC9010895282F392F37FF03C062
:10033000309521953F4FC90108958FEF90E090933C
:1003400089008093880008958FEF90E090938B0050
:1003500080938A0008950E949401282F392F2F3FFF
:10036000310519F014F02FEF30E08FEF90E0821B91
:10037000930B909389008093880008950E949401C4
:10038000282F392F2F3F310519F014F02FEF30E0CF
:100390008FEF90E0821B930B90938B0080938A00E9
:1003A000089585B198E0892785B90895CF93DF93A3
:1003B0002091100130911101809108019091090163
:1003C00028173907B4F42091120130911301275EE8
:1003D0003F4F4FEF213834072CF08217930724F456
:1003E0009C0102C021E83FEF3093110120931001DE
:1003F00016C0821793079CF42091120130911301CB
:10040000295130402817390734F0C9012038310507
:1004100014F08FE790E09093110180931001809188
:1004200012019091130197FD03C021E030E002C05A
:100430002FEF3FEFC0911001D0911101D7FD03C004
:1004400081E090E002C08FEF9FEF2817390799F005
:100450008FEF90E090938900809388000E94D101F3
:10046000D0931301C09312018BEA90E090930101A5
:100470008093000109C0D0931301C0931201CE01F3
:10048000880F991F0E94AB01DF91CF91089585B12C
:1004900090E1892785B90895CF93DF9320910C01CE
:1004A00030910D0180910A0190910B0128173907B5
:1004B000B4F420910E0130910F01275E3F4F4FEFB2
:1004C000213834072CF08217930724F49C0102C0D2
:1004D00021E83FEF30930D0120930C0116C08217E5
:1004E00093079CF420910E0130910F012951304067
:1004F0002817390734F0C9012038310514F08FE787
:1005000090E090930D0180930C0180910E019091E9
:100510000F0197FD03C021E030E002C02FEF3FEF55
:10052000C0910C01D0910D01D7FD03C081E090E096
:1005300002C08FEF9FEF2817390799F08FEF90E0F7
:1005400090938B0080938A000E944702D0930F0102
:10055000C0930E0183EC90E090930301809302011D
:1005600009C0D0930F01C0930E01CE01880F991FCF
:100570000E94BE01DF91CF9108958617970734F04E
:10058000642F752F861797070CF4BC01CB010895D3
:10059000909309018093080170930B0160930A0105
:1005A0000895E0910001F09101010995E0910201A7
:1005B000F0910301099508951F920F920FB60F92C3
:1005C00011242F933F934F935F936F937F938F9358
:1005D0009F93AF93BF93EF93FF930E94D102FF913C
:1005E000EF91BF91AF919F918F917F916F915F91AB
:1005F0004F913F912F910F900FBE0F901F90189524
:04060000F894FFCF9C
:04060400D6014C02CD
:00000001FF
