S01600006C65674D6F746F725F72656C61792E7372656349
S11300000C9434000C9451000C9451000C94510045
S11300100C9451000C9451000C9451000C94510018
S11300200C9451000C9451000C9451000C94510008
S11300300C9451000C9451000C9451000C945100F8
S11300400C9492020C9451000C9451000C945100A5
S11300500C9451000C9451000C9451000C945100D8
S11300600C94E6000C94510011241FBECFEFD4E091
S1130070DEBFCDBF11E0A0E0B1E0EEEDF5E002C0DF
S113008005900D92A430B107D9F711E0A4E0B1E0D6
S113009001C01D92A032B107E1F70E94B6020C9490
S11300A0ED020C940000089590910901E92FF0E00D
S11300B0E65FFE4F80839F5F9093090108959091BE
S11300C00801E92FF0E0E65FFE4F80819F5F909387
S11300D00801089510920901109208010895809171
S11300E0B900803A79F1813A28F4803651F08038A9
S11300F089F50EC0883BD9F0803C21F1883A51F54E
S11301000FC08091BB00E0910C01F0910D0106C07D
S11301108091BB00E0910E01F0910F0109950EC092
S11301208091BB00E0910C01F0910D010995E091E3
S11301301001F091110109958093BB0084EC809328
S1130140BC000895E0911201F0911301099584EC2B
S11301508093BC00089580911401909115018C3016
S1130160910534F401969093150180931401089538
S113017010921501109214018BE991E09093030100
S113018080930201089580911601909117018C309B
S1130190910534F401969093170180931601089504
S11301A010921701109216018AE092E090930101D7
S11301B0809300010895880F8093BA00613011F490
S11301C085E401C084E48093BC0008951F920F92DB
S11301D00FB60F9211242F933F934F935F936F9316
S11301E07F938F939F93AF93BF93EF93FF93F89471
S11301F00E946F007894FF91EF91BF91AF919F910E
S11302008F917F916F915F914F913F912F910F90BB
S11302100FBE0F901F90189590930D0180930C01C1
S1130220089590930F0180930E0108959093130104
S11302308093120108959093110180931001089501
S11302408091BC00881F8827881F08950E94200180
S1130250882311F00E946F000895282F269530E01E
S113026080FD02C0C901089588279927821B930B3A
S113027008958FEF90E09093890080938800909385
S11302808B0080938A0081EF809380008AE08093C2
S11302908100089515B88EE184B9089583E085BD81
S11302A081E080936E00089597FD03C081E090E0A3
S11302B008958FEF9FEF08959C0197FF03C0309539
S11302C021953F4FC90108958FEF90E090938900E5
S11302D08093880008958FEF90E090938B00809333
S11302E08A0008950E945C019C018F3F910519F0DA
S11302F014F02FEF30E08FEF90E0821B930B90937C
S113030089008093880008950E945C019C018F3FBE
S1130310910519F014F02FEF30E08FEF90E0821B7D
S1130320930B90938B0080938A00089585B198E095
S1130330892785B908954091180150911901809138
S113034006019091070120911A0130911B01481771
S113035059079CF4A901475E5F4F6FEF4138560778
S11303602CF08417950724F4AC0102C041E85FEF38
S1130370509319014093180113C08417950784F40E
S1130380A901495150404817590734F0CA0140386F
S1130390510514F08FE790E09093190180931801B0
S11303A037FD03C041E050E002C04FEF5FEF8091A2
S11303B018019091190197FD03C021E030E002C0BB
S11303C02FEF3FEF42175307B9F08FEF90E0909370
S11303D08900809388000E94960180911801909171
S11303E0190190931B0180931A018BEA90E090937A
S11303F0030180930201089590931B0180931A01D5
S1130400880F991F0E947201089585B190E1892790
S113041085B9089540911C0150911D0180910401FA
S11304209091050120911E0130911F014817590731
S11304309CF4A901475E5F4F6FEF413856072CF0DB
S11304408417950724F4AC0102C041E85FEF509390
S11304501D0140931C0113C08417950784F4A9015E
S1130460495150404817590734F0CA0140385105E2
S113047014F08FE790E090931D0180931C0137FDE9
S113048003C041E050E002C04FEF5FEF80911C01D8
S113049090911D0197FD03C021E030E002C02FEFD1
S11304A03FEF42175307B9F08FEF90E090938B0022
S11304B080938A000E94050280911C0190911D0185
S11304C090931F0180931E0183EC90E090930101AF
S11304D080930001089590931F0180931E01880F5B
S11304E0991F0E9484010895861797072CF0BA017A
S11304F0841795070CF4BC01CB0108959093070170
S11305008093060170930501609304010895E091BE
S11305100201F09103010995E0910001F0910101BC
S1130520099508951F920F920FB60F9211242F93DD
S11305303F934F935F936F937F938F939F93AF9367
S1130540BF93EF93FF930E948702FF91EF91BF91B6
S1130550AF919F918F917F916F915F914F913F9157
S11305602F910F900FBE0F901F9018950E94390184
S11305700E944A010E944E0181E060E00E94DB007B
S113058083E590E090930D0180930C018FE590E05A
S1130590909311018093100184E590E090930F01F2
S11305A080930E018AE690E09093130180931201E8
S11305B078940E94260180910A010E942D01EC0189
S11305C080910B010E942D01D0930701C093060175
S11105D09093050180930401ECCFF894FFCFC3
S10705DE0A029B016D
S9030000FC
