:100000000C9434000C9446000C9446000C9446006A
:100010000C9446000C9446000C9446000C94CB02C1
:100020000C94F2020C94A4020C947D020C942F0206
:100030000C9456020C9408020C94BA010C94E10141
:100040000C9493010C9446000C9446000C944600CA
:100050000C9446000C9446000C9446000C94460008
:100060000C949F000C94460011241FBECFEFD4E0E7
:10007000DEBFCDBF11E0A0E0B1E001C01D92AF3105
:10008000B107E1F70E9460030C948F030C94000009
:100090008091B900803A79F1813A28F4803651F0A4
:1000A000803889F50EC0883BD9F0803C21F1883A30
:1000B00051F50FC08091BB00E0911B01F0911C0134
:1000C00006C08091BB00E0911901F0911A010995D9
:1000D0000EC08091BB00E0911B01F0911C010995BD
:1000E000E0911501F091160109958093BB0084EC15
:1000F0008093BC000895E0911701F09118010995D3
:1001000084EC8093BC000895089590910001E92F3C
:10011000F0E0E35EFE4F80839F5F909300010895BF
:100120000895109200010895880F8093BA006130FD
:1001300011F485E401C084E48093BC0008951F920B
:100140000F920FB60F9211242F933F934F935F930B
:100150006F937F938F939F93AF93BF93EF93FF938F
:10016000F8940E9448007894FF91EF91BF91AF916D
:100170009F918F917F916F915F914F913F912F91BF
:100180000F900FBE0F901F90189590931C018093B5
:100190001B01089590931A0180931901089590937B
:1001A000180180931701089590931601809315010B
:1001B00008958091BC00881F8827881F08950E9499
:1001C000D900882311F00E9448000895362F3295F7
:1001D000307F942F9370392B982F9295990F990F08
:1001E000907C932B94BD50E044705070440F551F89
:1001F000242B25BD8111569A6111559A0895362FE9
:100200003295307F942F9370392B982F9295990FB8
:10021000990F907C932B9093800050E04C7050701D
:10022000440F551F242B209381008111219A6111C5
:10023000229A0895362F3295307F942F9370392B60
:10024000982F9295990F990F907C932B9093B000D3
:1002500050E044705070440F551F242B2093B10080
:100260008111239A6111539A089580936E00089525
:1002700080936F00089580937000089586BD08955F
:10028000909385008093840008958093B200089530
:1002900087BD089588BD0895909389008093880054
:1002A000089590938B0080938A000895909387001F
:1002B0008093860008958093B30008958093B400DE
:1002C000089590931401809313010895909312015F
:1002D0008093110108959093100180930F01089568
:1002E00090930E0180930D01089590930C018093DB
:1002F0000B01089590930A0180930901089590934A
:1003000008018093070108959093060180930501E9
:10031000089590930401809303010895909302013E
:100320008093010108951F920F920FB60F9211242E
:100330002F933F934F935F936F937F938F939F93ED
:10034000AF93BF93EF93FF93E0911301F0911401EA
:100350000995FF91EF91BF91AF919F918F917F91FF
:100360006F915F914F913F912F910F900FBE0F9022
:100370001F9018951F920F920FB60F9211242F9372
:100380003F934F935F936F937F938F939F93AF931D
:10039000BF93EF93FF93E0911101F0911201099542
:1003A000FF91EF91BF91AF919F918F917F916F914D
:1003B0005F914F913F912F910F900FBE0F901F9023
:1003C00018951F920F920FB60F9211242F933F93FF
:1003D0004F935F936F937F938F939F93AF93BF934D
:1003E000EF93FF93E0910F01F09110010995FF91B8
:1003F000EF91BF91AF919F918F917F916F915F919D
:100400004F913F912F910F900FBE0F901F90189515
:100410001F920F920FB60F9211242F933F934F9379
:100420005F936F937F938F939F93AF93BF93EF935C
:10043000FF93E0910D01F0910E010995FF91EF916D
:10044000BF91AF919F918F917F916F915F914F91EC
:100450003F912F910F900FBE0F901F9018951F92F4
:100460000F920FB60F9211242F933F934F935F93E8
:100470006F937F938F939F93AF93BF93EF93FF936C
:10048000E0910B01F0910C010995FF91EF91BF9163
:10049000AF919F918F917F916F915F914F913F911C
:1004A0002F910F900FBE0F901F9018951F920F92D3
:1004B0000FB60F9211242F933F934F935F936F9337
:1004C0007F938F939F93AF93BF93EF93FF93E091AD
:1004D0000901F0910A010995FF91EF91BF91AF9148
:1004E0009F918F917F916F915F914F913F912F914C
:1004F0000F900FBE0F901F9018951F920F920FB67E
:100500000F9211242F933F934F935F936F937F9399
:100510008F939F93AF93BF93EF93FF93E091070166
:10052000F09108010995FF91EF91BF91AF919F91D3
:100530008F917F916F915F914F913F912F910F908C
:100540000FBE0F901F9018951F920F920FB60F922B
:1005500011242F933F934F935F936F937F938F93C8
:100560009F93AF93BF93EF93FF93E0910501F091B9
:1005700006010995FF91EF91BF91AF919F918F91E6
:100580007F916F915F914F913F912F910F900FBE8F
:100590000F901F9018951F920F920FB60F92112473
:1005A0002F933F934F935F936F937F938F939F937B
:1005B000AF93BF93EF93FF93E0910301F091040198
:1005C0000995FF91EF91BF91AF919F918F917F918D
:1005D0006F915F914F913F912F910F900FBE0F90B0
:1005E0001F9018951F920F920FB60F9211242F9300
:1005F0003F934F935F936F937F938F939F93AF93AB
:10060000BF93EF93FF93E0910101F09102010995EF
:10061000FF91EF91BF91AF919F918F917F916F91DA
:100620005F914F913F912F910F900FBE0F901F90B0
:1006300018958FEF87BD88BD83E063E043E022E03B
:100640000E94E60008958FEF90E00E944C018FEF2A
:1006500090E00E94510183E063E045E022E00E94C7
:10066000FF0008958FEF8093B3008093B40083E080
:1006700063E043E022E00E941A010895982F9E7FD4
:10068000909580FD04C097BD8FEF88BD089598BDFB
:100690008FEF87BD0895982F8E7F809590FD08C0BD
:1006A00090E00E944C018FEF90E00E94510108956C
:1006B00090E00E9451018FEF90E00E944C0108955C
:1006C0008FEF8AB91BB885E060E00E94940084E84F
:1006D00090E090931C0180931B0185E890E090933B
:1006E0001A018093190180E990E09093160180939C
:1006F000150181E990E090931801809317010E9401
:1007000019030E9423035C9A0E94DF0080911D015F
:100710000E943E0380911E010E944B03F4CFF89487
:02072000FFCF09
:00000001FF
