:100000000C9434000C9446000C9446000C9446006A
:100010000C9446000C9446000C9446000C94460048
:100020000C9446000C9446000C9446000C94460038
:100030000C9446000C9446000C9446000C94460028
:100040000C9446000C9446000C9446000C94460018
:100050000C9446000C9446000C9446000C94460008
:100060000C9468010C94460011241FBECFEFD4E01D
:10007000DEBFCDBF11E0A0E0B1E001C01D92AE3007
:10008000B107E1F70E94AA010C94CC010C94000086
:100090008FEF8AB984B980E98BB984E185B983E0AF
:1000A00084BD92E095BD8093B00080E28093B10062
:1000B00017BC18BC1092B3001092B400089517BC7E
:1000C00018BC33E034BD20E92BB9FC0180818230BB
:1000D00051F0833061F0813019F02BB934BD0895AF
:1000E0002BB983EA07C080E88BB983E803C080E1BD
:1000F0008BB983E284BD0895DF93CF9300D0CDB751
:10010000DEB7898390910101981741F08093010136
:10011000CE0101966A830E945F006A8167BD68BD57
:100120000F900F90CF91DF9108951092B30010922D
:10013000B40033E03093B00024E125B9FC018081A4
:10014000823059F0833069F0813021F025B9309345
:10015000B000089525B983EA07C084E085B983E833
:1001600003C080E185B983E28093B0000895DF93F6
:10017000CF9300D0CDB7DEB7898390910001981757
:1001800041F080930001CE0101966A830E949500A0
:100190006A816093B3006093B4000F900F90CF9189
:1001A000DF9108958091B900803A79F1813A28F47D
:1001B000803651F0803889F50EC0883BD9F0803CFC
:1001C00021F1883A51F50FC08091BB00E0910A01FE
:1001D000F0910B0106C08091BB00E0910801F09105
:1001E000090109950EC08091BB00E0910A01F091D0
:1001F0000B010995E0910401F091050109958093A7
:10020000BB0084EC8093BC000895E0910601F0915E
:100210000701099584EC8093BC0008959093050133
:100220008093040108950895209102013091030103
:100230002115310549F480930C0181E090E0909301
:1002400003018093020108952130310531F4809338
:100250000D011092030110920201089580910C018A
:10026000982F9E7F19F480E060E00BC0682F6695A0
:1002700080FD04C0660F6F5F82E003C0660F6F5F92
:1002800083E00E947C0080910D01982F9E7F19F4DD
:1002900080E060E00BC0682F669580FD04C0660FAB
:1002A0006F5F82E003C0660F6F5F83E00E94B7005C
:1002B00010920301109202010895880F8093BA00F2
:1002C000613011F485E401C084E48093BC0008959A
:1002D0001F920F920FB60F9211242F933F934F93BB
:1002E0005F936F937F938F939F93AF93BF93EF939E
:1002F000FF93F8940E94D2007894FF91EF91BF9100
:10030000AF919F918F917F916F915F914F913F91AD
:100310002F910F900FBE0F901F90189590930B0187
:1003200080930A010895909309018093080108952C
:10033000909307018093060108958091BC00881F67
:100340008827881F08950E949D01882311F00E942C
:10035000D20008950E94480081E060E00E945D01A3
:1003600083E191E090930B0180930A0184E191E095
:1003700090930901809308018EE091E0909305012C
:10038000809304018EE291E090930701809306012F
:0C0390000E94A301FDCF0895F894FFCF58
:00000001FF
