:100000000C9434000C9451000C9451000C94510049
:100010000C9451000C9451000C9451000C9451001C
:100020000C9451000C9451000C9451000C9451000C
:100030000C9451000C9451000C9451000C945100FC
:100040000C94FD000C9451000C9451000C94510040
:100050000C9451000C9451000C9451000C945100DC
:100060000C94B6000C94510011241FBECFEFD4E0C5
:10007000DEBFCDBF11E0A0E0B1E0EAEBF5E002C0E9
:1000800005900D92A430B107D9F711E0A4E0B1E0DA
:1000900001C01D92A032B107E1F70E942B010C9420
:1000A000DB020C9400008091B900803A79F1813A2A
:1000B00028F4803651F0803889F50EC0883BD9F09D
:1000C000803C21F1883A51F50FC08091BB00E0914E
:1000D0000E01F0910F0106C08091BB00E0910C0170
:1000E000F0910D0109950EC08091BB00E0910E01C9
:1000F000F0910F010995E0910801F091090109952E
:100100008093BB0084EC8093BC000895E0910A01C9
:10011000F0910B01099584EC8093BC00089508953B
:1001200090910601E92FF0E0EC5FFE4F80839F5F26
:1001300090930601089590910701E92FF0E0EC5F9C
:10014000FE4F80819F5F90930701089510920601F2
:10015000109207010895880F8093BA00613011F45E
:1001600085E401C084E48093BC0008951F920F923F
:100170000FB60F9211242F933F934F935F936F937A
:100180007F938F939F93AF93BF93EF93FF93F894D5
:100190000E9453007894FF91EF91BF91AF919F918E
:1001A0008F917F916F915F914F913F912F910F9020
:1001B0000FBE0F901F90189590930F0180930E0122
:1001C000089590930D0180930C01089590930B0175
:1001D00080930A010895909309018093080108957E
:1001E0008091BC00881F8827881F08950E94F00016
:1001F000882311F00E94530008951F920F920FB6AA
:100200000F9211242F933F934F935F936F937F939C
:100210008F939F93AF93BF93EF93FF930E94D70168
:10022000FF91EF91BF91AF919F918F917F916F91CE
:100230005F914F913F912F910F900FBE0F901F90A4
:100240001895282F269530E080FF03C03095219522
:100250003F4FC9010895CF93DF930E94A9010E94E7
:10026000B8010E94BC0181E060E00E94AB008FE811
:1002700090E090930F0180930E018BE990E09093B2
:1002800009018093080180E990E090930D0180932B
:100290000C0186EA90E090930B0180930A01789418
:1002A0000E94F600809104010E942101EC018091DE
:1002B00005010E942101BC01CE010E94D202F0CFB3
:1002C0008617970734F0642F752F861797070CF45D
:1002D000BC01CB0108958FEF90E09093890080934B
:1002E000880008958FEF90E090938B0080938A00B0
:1002F000089580911601909117018530910534F48D
:10030000019690931701809316010895109217019A
:10031000109216018BE691E0909301018093000109
:10032000089580911401909115018530910534F460
:100330000196909315018093140108951092150170
:100340001092140182E791E09093030180930201DF
:1003500008958FEF90E090938900809388008FEF4D
:1003600088BD81EF809380008AE0809381000895AA
:1003700015B88EE184B9089583E085BD81E080934E
:100380006E000895282F392F37FF03C0309521952F
:100390003F4FC9010895FC018081918197FD03C001
:1003A00021E030E002C02FEF3FEFC9010895E09156
:1003B0000001F09101010995E0910201F091030122
:1003C000099508950E94C201282F392F2F3F31052A
:1003D00019F014F02FEF30E08FEF90E0821B930BB9
:1003E0009093890080938800089585B198E08927CB
:1003F00085B90895CF93DF9380911C0190911D01E1
:1004000040911001509111018417950744F4809197
:100410001E0190911F01499661E87FEF0BC04817BC
:10042000590774F480911E0190911F014997BA01F8
:100430004FE750E00E94600190931D0180931C01E2
:1004400080911E0190911F0197FD03C021E030E0D3
:1004500002C02FEF3FEFC0911C01D0911D01D7FDCD
:1004600003C081E090E002C08FEF9FEF28173907AB
:1004700099F08FEF90E090938900809388000E941C
:10048000F501D0931F01C0931E0189E791E090937D
:1004900001018093000109C0D0931F01C0931E0188
:1004A000CE01880F991F0E94E201DF91CF9108953C
:1004B0000E94C201282F392F2F3F310519F014F067
:1004C0002FEF30E08FEF90E0821B930B90938B0027
:1004D00080938A00089585B190E1892785B90895B0
:1004E000CF93DF93809118019091190140911201EF
:1004F000509113018417950744F480911A0190914B
:100500001B01499661E87FEF0BC04817590774F447
:1005100080911A0190911B014997BA014FE750E071
:100520000E9460019093190180931801E0911A01D3
:10053000F0911B018081918197FD03C021E030E0A3
:1005400002C02FEF3FEFC0911801D09119018881AF
:10055000998197FD03C081E090E002C08FEF9FEF8B
:100560002817390799F08FEF90E090938B008093D4
:100570008A000E946B02D0931B01C0931A0181E98B
:1005800091E0909303018093020109C0D0931B0175
:10059000C0931A01CE01880F991F0E945802DF9163
:1005A000CF910895909311018093100170931301DE
:0A05B000609312010895F894FFCF44
:0405BA00FA017002D0
:00000001FF
