:100000000C9434000C9446000C9446000C9446006A
:100010000C9446000C9446000C9446000C94460048
:100020000C9446000C9446000C9446000C94460038
:100030000C9446000C9446000C9446000C94460028
:100040000C9446000C9446000C9446000C94460018
:100050000C9446000C9446000C9446000C94460008
:100060000C9446000C94460011241FBECFEFD4E040
:10007000DEBFCDBF11E0A0E0B1E001C01D92AA300B
:10008000B107E1F70E9458020C94A8020C940000FA
:1000900063708093B8006093B90084E08093BC00E3
:1000A000089584E98093BC000895882321F484ECAA
:1000B0008093BC0003C084E88093BC00ECEBF0E0CC
:1000C00080818823ECF78091BB0008958091BC006B
:1000D000881F8827881F08959091B900987F81E034
:1000E000983209F080E008958093BB0084E8809303
:1000F000BC000E9466008823E1F30E946C0091E03E
:10010000882309F490E0892F08950F931F93082FF7
:10011000162F84EA8093BC000E9466008823E1F3D6
:10012000802F880F112319F0113021F402C08E7F27
:1001300001C081600E9474001F910F910895019782
:1001400031F022E02A95F1F700C00197D1F7089528
:10015000019741F0EFECF7E03197F1F700C00000B4
:100160000197C1F708952F923F924F925F926F923D
:100170007F928F929F92AF92BF92CF92DF92EF9237
:10018000FF920F931F93CF93DF936C01E0910001D7
:10019000F0910101408121E030E0C90100900701A8
:1001A00002C0880F991F0A94E2F7842B808300E035
:1001B00010E066247724C1E0D0E00F2EF0E0EF2EAF
:1001C000F1E0FF2EF02D0F2EF5E02F2E3324F02D31
:1001D0002E0C3F1C0F2EF7E04F2E5524F02D4E0C09
:1001E0005F1C5E01002E02C0AA0CBB1C0A94E2F741
:1001F000450180949094C4018C219D218C159D050E
:1002000081F4D701ED91FC912081CE01D1010C90B8
:1002100002C0880F991F0A94E2F780958223808399
:100220000EC0D701ED91FC912081CE01D1010C903F
:1002300002C0880F991F0A94E2F7822B808385E021
:1002400090E00E949F00D701ED91FC912081CE01AA
:10025000D2010C9002C0880F991F0A94E2F7809592
:100260008223808385E090E00E949F00A2E0B1E0BD
:10027000ED91FC911197808190E0E4E0F1E0008045
:1002800002C0959587950A94E2F780FF03C06A281B
:100290007B2802C068207920D701ED91FC91208154
:1002A000CE01D2010C9002C0880F991F0A94E2F788
:1002B000822B80830F5F1F4F0830110509F091CF0B
:1002C00085E090E00E949F00E0910001F091010123
:1002D000408121E030E0C9010090050102C0880F93
:1002E000991F0A94E2F7842B8083862D972DDF9146
:1002F000CF911F910F91FF90EF90DF90CF90BF9023
:10030000AF909F908F907F906F905F904F903F90B5
:100310002F9008958F929F92AF92BF92CF92DF92CB
:10032000EF92FF920F931F93DF93CF93CDB7DEB77A
:1003300028970FB6F894DEBF0FBECDBFE0E0F1E026
:10034000282F392FD90188E00D9001928150E1F7D3
:10035000E0910001F0910101208101E010E0C8016D
:100360000090060102C0880F991F0A94E2F7809559
:10037000822380838AE090E00E94A80081E090E0E0
:100380000E94B30082E490E00E94B300C82E80E097
:1003900090E00E94B300B82E80E090E00E94B3008D
:1003A000E82E80E090E00E94B300D82E80E090E03C
:1003B0000E94B300A82E80E090E00E94B300982E27
:1003C00080E090E00E94B300F82E80E090E00E9470
:1003D000B300882E8AE090E00E949F00E091000127
:1003E000F091010180810090060102C0000F111FF1
:1003F0000A94E2F7082B00838AE090E00E94A800AC
:100400004E2D40955D2D50952C2D3B2D6A2D792D2F
:100410008F2D982D28960FB6F894DEBF0FBECDBF56
:10042000CF91DF911F910F91FF90EF90DF90CF90D0
:10043000BF90AF909F908F900895CF93DF93EC0182
:1004400081E060E00E94850089810E9474008881BB
:100450000E9474000E945100DF91CF9108952EEF09
:10046000FC01208321830E941D0208952FEFFC01CF
:10047000208321830E941D0208952EEFFC0120831A
:100480002FEF21830E941D0208952FEFFC0120838E
:100490002EEF21830E941D020895FC01808181704E
:1004A0008083818181708183CF010E941D02089524
:1004B000BF92CF92DF92EF92FF920F931F93DF9341
:1004C000CF93CDB7DEB768970FB6F894DEBF0FBEF7
:1004D000CDBF8FED8AB980E38BB98BE290E09A8330
:1004E000898389E290E09C838B8385E08D8382E021
:1004F0008E8384E08F8383E0888782E062E00E94BD
:1005000048008E010F5F1F4F0F2EF9E0EF2EFF24E2
:10051000F02DEC0EFD1E0F2EF1E1CF2EDD24F02D7F
:10052000CC0EDD1EBB246894B3F8C8010E948A017A
:10053000298B3A8B4B8B5C8B6D8B7E8B8F8B988F43
:10054000D701F6018B2D01900D928150E1F7EDCF8F
:04055000F894FFCF4D
:00000001FF
