:100000000C9434000C9451000C9451000C94510049
:100010000C9451000C9451000C9451000C9451001C
:100020000C9451000C9451000C9451000C9451000C
:100030000C9451000C9451000C9451000C945100FC
:100040000C94D2020C9451000C9451000C94510069
:100050000C9451000C9451000C9451000C945100DC
:100060000C9400010C94510011241FBECFEFD4E07A
:10007000DEBFCDBF11E0A0E0B1E0E0EFF5E002C0EF
:1000800005900D92A430B107D9F711E0A4E0B1E0DA
:1000900001C01D92A032B107E1F70E9490020C94BA
:1000A000F6020C940000CF93DF938091B900803A60
:1000B00009F442C0813A30F4803659F0803809F0B2
:1000C00043C012C0883B69F1803CB1F1883AE1F548
:1000D00016C08091BB00E0911E01F0911F010995AF
:1000E00084EC8093BC0030C08091BB00E0911C0187
:1000F000F0911D01099584EC8093BC0025C0CBEBE9
:10010000D0E08881E0911E01F0911F010995E091F6
:100110001801F09119010995888384EC8093BC0043
:1001200013C0E0911801F091190109958093BB006B
:1001300084EC8093BC0008C0E0911A01F0911B018F
:10014000099584EC8093BC00DF91CF9108950895C8
:1001500090910601E92FF0E0EC5FFE4F80839F5FF6
:1001600090930601089590910701E92FF0E0EC5F6C
:10017000FE4F80819F5F90930701089510920601C2
:100180001092070108958091160190911701823015
:10019000910534F401969093170180931601089508
:1001A00010921701109216018BE292E090930101D8
:1001B000809300010895809114019091150182307F
:1001C000910534F4019690931501809314010895DC
:1001D00010921501109214018FEC91E0909303019D
:1001E000809302010895880F8093BA00613021F452
:1001F00085E48093BC00089584E48093BC00089556
:100200001F920F920FB60F9211242F933F934F938B
:100210005F936F937F938F939F93AF93BF93EF936E
:10022000FF93F8940E9453007894FF91EF91BF914F
:10023000AF919F918F917F916F915F914F913F917E
:100240002F910F900FBE0F901F90189590931F0144
:1002500080931E01089590931D0180931C010895C1
:1002600090931B0180931A01089590931901809334
:10027000180108958091BC00881F8827881F089561
:100280000E943A01882311F00E9453000895282FFC
:10029000269580FD02C030E004C030E03095219505
:1002A0003F4F822F932F08958FEF90E09093890016
:1002B0008093880090938B0080938A0081EF8093D5
:1002C00080008AE080938100089515B88EE184B99A
:1002D000089583E085BD81E080936E0008959923A1
:1002E0001CF021E030E002C02FEF3FEF822F932F70
:1002F0000895482F592F9A01332324F422273327B6
:10030000241B350B822F932F08958FEF90E090934D
:1003100089008093880008958FEF90E090938B0080
:1003200080938A0008950E947901282F392F2F3F4A
:10033000310519F014F02FEF30E08FEF90E0821BC1
:10034000930B909389008093880008950E9479010F
:10035000282F392F2F3F310519F014F02FEF30E0FF
:100360008FEF90E0821B930B90938B0080938A0019
:10037000089595B188E0892785B9089595B180E100
:10038000892785B908958617970734F0642F752F4C
:10039000861797070CF4BC01862F972F08950F93AB
:1003A0001F93CF93DF9380910C0190910D014091A9
:1003B0000A0150910B018417950774F480910E0186
:1003C00090910F01499661E87FEF0E94C3019093DD
:1003D0000D0180930C0111C04817590774F48091E6
:1003E0000E0190910F014997BA014FE750E00E942A
:1003F000C30190930D0180930C0180910E019091A7
:100400000F010E946F018C01C0910C01D0910D0170
:10041000CE010E946F010817190779F00E948C0124
:100420000E94BE01D0930F01C0930E018BED90E0AE
:10043000909303018093020109C0D0930F01C093F0
:100440000E01CE01880F991F0E94A601DF91CF9166
:100450001F910F9108950F931F93CF93DF93809176
:1004600010019091110140910801509109018417E8
:10047000950774F48091120190911301499661E8F7
:100480007FEF0E94C301909311018093100111C06E
:100490004817590774F480911201909113014997FC
:1004A000BA014FE750E00E94C3019093110180937D
:1004B000100180911201909113010E946F018C0133
:1004C000C0911001D0911101CE010E946F01081757
:1004D000190779F00E9485010E94B901D093130198
:1004E000C093120183EC90E090930101809300018E
:1004F00009C0D0931301C0931201CE01880F991F38
:100500000E949301DF91CF911F910F9108959093D5
:1005100009018093080170930B0160930A0108950B
:10052000EF92FF920F931F93CF93DF930E9454019A
:100530000E9465010E94690182E060E00E94F30070
:1005400087EA90E00E94260183EB90E00E9435014B
:1005500088EA90E00E942B018EEB90E00E9430012F
:10056000789404E011E078010894E11CF11C0E94E9
:100570004001F80180810E944701EC01F701808170
:100580000E944701BC01CE010E948702F0CFE0919A
:100590000001F09101010995E0910201F091030140
:1005A000099508951F920F920FB60F9211242F9361
:1005B0003F934F935F936F937F938F939F93AF93EB
:1005C000BF93EF93FF930E94C702FF91EF91BF91FA
:1005D000AF919F918F917F916F915F914F913F91DB
:1005E0002F910F900FBE0F901F901895F894FFCF8A
:0405F0002B02CF010A
:00000001FF
