:100000000C9434000C9451000C9451000C94510049
:100010000C9451000C9451000C9451000C9451001C
:100020000C9451000C9451000C9451000C9451000C
:100030000C9451000C9451000C9451000C945100FC
:100040000C9451000C9451000C9451000C945100EC
:100050000C9451000C9451000C9451000C945100DC
:100060000C9451000C94510011241FBECFEFD4E02A
:10007000DEBFCDBF11E0A0E0B1E0E2EEFDE002C0E6
:1000800005900D92A430B107D9F711E0A4E0B1E0DA
:1000900001C01D92AD31B107E1F70E941B040C9421
:1000A000EF060C94000024E2FC012683089525E667
:1000B000FC012683089524EBFC01278308952DE39A
:1000C000FC0127830895FC018681817086838781E6
:1000D00081708783089526E4FC012283089527E434
:1000E000FC0122830895FC0182818170828308953E
:1000F0002FEFFC01238308952EEFFC012383089545
:10010000FC0183818170838308952EEFFC01248399
:1001100008952FEFFC0124830895FC0184818170F0
:10012000848308952FEFFC01258308952EEFFC01B1
:1001300025830895FC018581817085830895CF937F
:10014000DF93EC0188818E7F888389818E7F89830C
:10015000442309F040C0862F8657833110F48EEF78
:100160003DC0862F90E06637D8F42EEF29839C019E
:10017000B901882777FD8095982F0E94000622EA12
:100180003EE14AE65FE30E948C0620E030E040E773
:1001900052E40E946E050E94D205660F688320C05B
:1001A0002EEF28839C01B901882777FD8095982F31
:1001B0000E94000626EB32E248E65FEB0E948C06C6
:1001C00024E93AE34BE753E40E946E050E94D2050E
:1001D000660F698305C0413019F488E788838983F5
:1001E000888186958F3719F08C3308F48CE3880F5B
:1001F00098819170982B9883898186958F3719F013
:100200008C3308F48CE3880F99819170982B998333
:10021000DF91CF910895FC0180818E7F8083818161
:100220008E7F8183662331F4809104018F3748F0FB
:100230008EEF05C0809104018C3318F088E780832D
:1002400012C0809104018C5F80930401909104019D
:10025000990F80818170892B808390910401990F7F
:1002600081818170892B81830895FC018081816067
:100270008083818181608183662331F480910401D0
:100280008F3748F08FEF05C0809104018C3318F050
:1002900089E7808312C0809104018C5F8093040100
:1002A00090910401990F80818170892B80839091B6
:1002B0000401990F81818170892B81830895FC014C
:1002C00080818160808381818E7F8183662341F478
:1002D000809104018C3360F089E7808388E71AC03D
:1002E000809104018C3320F081E5808380E512C089
:1002F000809104018C5F8093040190910401990F17
:1003000080818170892B808390910401990F818174
:100310008170892B81830895FC0180818E7F808389
:10032000818181608183662341F4809104018C3353
:1003300060F088E7808389E71AC0809104018C33DC
:1003400020F080E5808381E512C0809104018C5FFC
:100350008093040190910401990F80818170892B11
:10036000808390910401990F81818170892B818311
:100370000895FC0110920401808181708083818145
:10038000817081830895481720F4842F461708F45C
:10039000862F08952CE3FC0120870895FC018085B9
:1003A0008170808708952CE3FC0121870895FC016A
:1003B0008185817081870895CF93DF93EC0181E07F
:1003C00060E00E94A70289810E94960288810E94B3
:1003D00096020E947602DF91CF910895CF93DF932A
:1003E000EC0182E060E00E94A7028A810E949602EE
:1003F0008B810E9496020E947602DF91CF91089530
:10040000CF93DF93EC0183E060E00E94A7028C8130
:100410000E9496028D810E9496020E947602DF91D0
:10042000CF910895CF93DF93EC0184E060E00E94C8
:10043000A7028F810E9496028E810E9496020E94DE
:100440007602DF91CF910895CF93DF93EC0185E0A1
:1004500060E00E94A70288850E94960289850E941A
:1004600096020E947602DF91CF910895CF93DF9399
:10047000EC010E94DC01CE010E94EE01CE010E943F
:100480000002CE010E941202CE010E942402DF91DE
:10049000CF910895FC01808181708083818181707A
:1004A000818383818170838382818170828385814E
:1004B0008170858384818170848386818170868345
:1004C0008781817087838085817080878185817035
:1004D0008187CF010E943602089563708093B8002F
:1004E0006093B90084E08093BC00089584E9809310
:1004F000BC000895882311F484EC01C084E8809343
:10050000BC008091BC0087FFFCCF8091BB000895A8
:100510008091BC00881F8827881F08959091B9009A
:10052000987F81E0983209F080E008958093BB00C5
:1005300084E88093BC000E9488028823E1F30E9433
:100540008E0291E0882309F490E0892F08951F938B
:10055000DF93CF930F92CDB7DEB7182F84EA809345
:10056000BC0069830E94880269818823D1F3812FAE
:10057000880F662319F0613021F402C08E7F01C01C
:1005800081600E9496020F90CF91DF911F91089594
:1005900004C022E02A95F1F700C00197D1F7089531
:1005A00006C0EFECF7E03197F1F700C000000197CB
:1005B000C1F708958F929F92AF92BF92CF92DF9230
:1005C000EF92FF920F931F93CF93DF936C01E09113
:1005D0000B01F0910C01208181E090E0009012016C
:1005E00002C0880F991F0A94E2F7282B2083EE247B
:1005F000FF24C0E0D0E001E010E058010E2C02C062
:10060000AA0CBB1C0A94E2F74501809490949401D3
:100610002C213D21E0910B01F0910C018091100102
:100620002C153D0561F42081A80102C0440F551F1F
:100630008A95E2F7CA0180958223808309C02081D0
:10064000A80102C0440F551F8A95E2F7242B20838E
:1006500085E090E00E94C802E0910B01F0910C014E
:100660002081C8010090120102C0880F991F0A94CE
:10067000E2F780958223808385E090E00E94C802A3
:10068000E0910D01F0910E01808190E000900F014A
:1006900002C0959587950A94E2F780FF03C0CA29A6
:1006A000DB2902C0C821D921E0910B01F0910C0196
:1006B0002081C8010090120102C0880F991F0A947E
:1006C000E2F7282B20830894E11CF11C58E0E51682
:1006D000F10409F092CF85E090E00E94C802E09119
:1006E0000B01F0910C01208181E090E0009010015D
:1006F00002C0880F991F0A94E2F7282B2083CE01AD
:10070000DF91CF911F910F91FF90EF90DF90CF90ED
:10071000BF90AF909F908F900895CF92DF92EF920D
:10072000FF920F931F93DF93CF93CDB7DEB72C9734
:100730000FB6F894DEBF0FBECDBFEBE0F1E0282F7F
:10074000392FD90188E00D9001928150E1F7E091B5
:100750000B01F0910C01208101E010E0C801009034
:10076000110102C0880F991F0A94E2F78095822335
:1007700080838AE090E00E94D00281E090E00E94B5
:10078000DA0282E490E00E94DA02282F80E090E012
:100790002C870E94DA02382F80E090E03B870E948D
:1007A000DA02C82E80E090E00E94DA02D82E80E0C3
:1007B00090E00E94DA02682F80E090E06A870E9451
:1007C000DA02782F80E090E079870E94DA02E82E42
:1007D00080E090E00E94DA02F82E8AE090E00E9429
:1007E000C802E0910B01F0910C0180810090110191
:1007F00002C0000F111F0A94E2F7802B80838AE069
:1008000090E00E94D0024C2D40955D2D50952C8596
:100810003B856A857985C7012C960FB6F894DEBFB3
:100820000FBECDBFCF91DF911F910F91FF90EF9041
:10083000DF90CF900895AF92BF92CF92DF92EF9268
:10084000FF920F931F93DF93CF93CDB7DEB76897D7
:100850000FB6F894DEBF0FBECDBF8FED8AB980E32F
:100860008BB98FEF87B918B88BE290E09A838983B0
:1008700089E290E09C838B8385E08D8302E00E8388
:1008800084E08F8383E0888782E062E00E946D02CB
:1008900083E191E00E944A02009309018E010F5FFB
:1008A0001F4F99E0E92EF12CEC0EFD1E81E1C82EC0
:1008B000D12CCC0EDD1EBB24B394C8010E948D0345
:1008C000298B3A8B4B8B5C8B6D8B7E8B8F8B988FB0
:1008D000D701F60188E001900D928150E1F79F85E4
:1008E00080910601809300018C8581FF03C0B09246
:1008F000060102C01092060180910501882331F49F
:1009000088B1807F88B988B1866007C0813031F4B2
:1009100088B1807F88B988B1896F88B980910001DA
:10092000882369F080910601882349F480910501AC
:100930008F5F80930501823010F010920501AC8426
:10094000A6FE07C083E191E0609105010E940B01C2
:100950001FC0A5FE07C083E191E0609105010E94E0
:10096000350116C09D3F38F083E191E060910501AB
:100970000E945F010DC0923038F483E191E06091F4
:1009800005010E948C0104C083E191E00E94B9013D
:100990008B8585FF07C0A4FE05C083E191E00E941E
:1009A0006B0025C087FF07C0A4FE05C083E191E06E
:1009B0000E946F001CC084FF07C0A4FE05C083E135
:1009C00091E00E947C0013C086FF07C0A4FE05C012
:1009D00083E191E00E9478000AC083E191E00E94E7
:1009E000800083E191E0609109010E9473008C8591
:1009F000982F9871983129F483E191E00E94850045
:100A000022C0982F9271923129F483E191E00E94E3
:100A1000890019C0982F9471943129F483E191E0F1
:100A20000E94920010C08171813129F483E191E02C
:100A30000E94960008C083E191E00E948D0083E14E
:100A400091E00E949A00AB84A5FE08C08C8583FFCC
:100A500005C083E191E00E94530024C0A7FE08C0B6
:100A60008C8583FF05C083E191E00E9457001AC086
:100A7000A4FE08C08C8583FF05C083E191E00E943D
:100A80005B0010C0A6FE08C08C8583FF05C083E113
:100A900091E00E945F0006C083E191E06091070150
:100AA0000E946300A3FE05C083E191E00E94CA0199
:100AB0000FC0A0FE05C083E191E00E94D30108C0F1
:100AC00083E191E00E94CE0183E191E00E94D70191
:100AD00083E191E00E943602F0CE5058BB27AA274E
:100AE0000ED0E0C0D1D030F0D6D020F031F49F3F0E
:100AF00011F41EF4C6C00EF4E095E7FBBCC0E92F6C
:100B0000E2D080F3BA17620773078407950718F0DD
:100B100071F49EF5FAC00EF4E0950B2EBA2FA02DBD
:100B20000B01B90190010C01CA01A0011124FF279A
:100B3000591B99F0593F50F4503E68F11A16F04095
:100B4000A22F232F342F4427585FF3CF4695379594
:100B50002795A795F0405395C9F77EF41F16BA0B59
:100B6000620B730B840BBAF09150A1F0FF0FBB1F07
:100B7000661F771F881FC2F70EC0BA0F621F731F50
:100B8000841F48F4879577956795B795F7959E3FAD
:100B900008F0B3CF9395880F08F09927EE0F97953B
:100BA0008795089598D088F09F5790F0B92F99278E
:100BB000B751A0F0D1F0660F771F881F991F1AF068
:100BC000BA95C9F712C0B13081F09FD0B1E0089555
:100BD0009CC0672F782F8827B85F39F0B93FCCF3D6
:100BE000869577956795B395D9F73EF4909580955E
:100BF000709561957F4F8F4F9F4F0895E89409C07E
:100C000097FB3EF490958095709561957F4F8F4F3F
:100C10009F4F9923A9F0F92F96E9BB279395F69555
:100C2000879577956795B795F111F8CFFAF4BB0FD3
:100C300011F460FF1BC06F5F7F4F8F4F9F4F16C037
:100C4000882311F096E911C0772321F09EE8872FC1
:100C5000762F05C0662371F096E8862F70E060E07D
:100C60002AF09A95660F771F881FDAF7880F9695F6
:100C7000879597F9089597F99F6780E870E060E09D
:100C800008959FEF80EC089500240A941616170625
:100C900018060906089500240A941216130614066D
:100CA00005060895092E0394000C11F4882352F0D0
:100CB000BB0F40F4BF2B11F460FF04C06F5F7F4F88
:100CC0008F4F9F4F089557FD9058440F551F59F06F
:100CD0005F3F71F04795880F97FB991F61F09F3F29
:100CE00079F087950895121613061406551FF2CF52
:100CF0004695F1DF08C0161617061806991FF1CFA2
:100D000086957105610508940895E894BB276627C8
:100D10007727CB0197F908950BD0C4CFB5DF28F022
:100D2000BADF18F0952309F0A6CFABCF1124EECF90
:100D3000CADFA0F3959FD1F3950F50E0551F629F36
:100D4000F001729FBB27F00DB11D639FAA27F00D24
:100D5000B11DAA1F649F6627B00DA11D661F829F4B
:100D60002227B00DA11D621F739FB00DA11D621F30
:100D7000839FA00D611D221F749F3327A00D611D4D
:100D8000231F849F600D211D822F762F6A2F11242F
:100D90009F5750408AF0E1F088234AF0EE0FFF1F82
:100DA000BB1F661F771F881F91505040A9F79E3FB9
:100DB000510570F060CFAACF5F3FECF3983EDCF3B3
:100DC000869577956795B795F795E7959F5FC1F7F6
:100DD000FE2B880F911D9695879597F90895F894A5
:020DE000FFCF43
:040DE200010101000A
:00000001FF
